:020000040800F2
:1000000070070020B5090008AD020008AF02000823
:10001000B3020008B7020008BB020008000000009D
:10002000000000000000000000000000BF02000807
:10003000C102000800000000C3020008C502000859
:10004000CF090008CF090008CF090008DD06000825
:10005000CF090008CF090008CF090008CF09000820
:10006000CF090008CF090008CF090008CF09000810
:10007000CF090008CF090008CF090008CF09000800
:10008000CF090008CF090008CF090008CF090008F0
:10009000CF090008CF090008CF090008CF090008E0
:1000A000CF090008CF090008CF090008CF090008D0
:1000B000CF090008CF090008CF090008CF090008C0
:1000C000CF090008CF090008CF090008CF090008B0
:1000D000CF09000829090008CF090008CF09000846
:1000E000CF090008B9060008CF090008CF090008A9
:1000F000CF090008CF090008CF090008CF09000880
:10010000CF090008CF090008CF090008CF0900086F
:10011000CF090008CF090008CF090008CF0900085F
:10012000CF090008CF090008CF090008CF0900084F
:10013000CF090008CF090008CF090008CF0900083F
:10014000CF090008CF090008CF090008CF0900082F
:10015000CF090008CF090008CF090008CF0900081F
:10016000CF090008CF090008CF090008CF0900080F
:10017000CF090008CF090008CF090008CF090008FF
:10018000CF090008CF09000800F002F800F049F894
:100190000AA090E8000C82448344AAF10107DA45E2
:1001A00001D100F03EF8AFF2090EBAE80F0013F0EB
:1001B000010F18BFFB1A43F001031847182A00006B
:1001C000382A0000103A24BF78C878C1FAD85207FC
:1001D00024BF30C830C144BF04680C6070470000C1
:1001E0000023002400250026103A28BF78C1FBD840
:1001F000520728BF30C148BF0B60704703681B0A15
:1002000028BF41F08001752902F00683F52902F02C
:100210003F83002070471FB502F0D6FC1FBD10B50C
:1002200010BD02F09FFC1146FFF7F5FF00F019F832
:1002300002F0BDFC03B4FFF7F2FF03BC00F014FBB7
:1002400010B54FF4407000F0D5FBA82000F08AFAFA
:100250004FF4164000F016FB00F062F900F06DFA62
:1002600010BDFFF7EDFF0EE000F051FA0446214605
:1002700005A002F0C5FA00F068FA044622460B46D3
:1002800005A002F0BDFAEFE773656373203D2025FA
:100290006C750D0A000000006D696C6C6973203D7F
:1002A00020256C6C750D0A0D0A000000704700BF18
:1002B000FEE700BFFEE700BFFEE700BFFEE77047B6
:1002C00070477047704700000CB500200190009007
:1002D0007648006840F480307449086000BF734875
:1002E000006800F4003000900198401C01900098D4
:1002F00018B90198B0F5A04FF1D16C48006800F42E
:10030000003010B10120009001E000200090009822
:10031000012846D165484030006840F0805063496C
:10032000403108606248006840F44040604908601D
:100330005E48083000685D4908310860084600687A
:1003400040F4004008600846006840F4A05008608F
:100350005848091F0860081F006840F08070091F96
:10036000086000BF5148006800F000700028F9D014
:1003700040F20570504908604C480830006820F091
:1003800003004A49083108600846006840F002004E
:10039000086000BF45480830006800F00C000828DD
:1003A000F8D10CBD10B54548006840F470004349D1
:1003B00008603E48006840F001003C4908600020A9
:1003C0003A4908310860394800683D4908403749D2
:1003D00008603C48091D0860081F006820F4802060
:1003E000091F0860002031490C310860FFF76CFFDD
:1003F0004FF0006031498039086010BD70B50020B1
:100400000022022300240221284D08352D6805F022
:100410000C0020B1042806D0082834D107E02A4D6A
:100420002A4E356033E02A4D284E35602FE01F4DAF
:100430002D1D2D68C5F380541C4D2D1D2D6805F014
:100440003F0154B1224DB5FBF1F5184E361D36680B
:10045000C6F3881605FB06F209E01B4DB5FBF1F566
:10046000124E361D3668C6F3881605FB06F20F4D90
:100470002D1D2D68C5F301456D1C6B00B2FBF3F516
:10048000124E356003E0104D104E356000BF00BFC6
:10049000064D08352D68C5F303150E4E705D0B4DE6
:1004A0002D68C540094E356070BD0000003802401F
:1004B0000070004008544007003C024088ED00E016
:1004C000FFFFF6FE103000240024F400000000209E
:1004D00000127A0004000020F8B504460D461746C5
:1004E0001E468DF800408DF801508DF802708DF891
:1004F00003606946002001F079FBF8BDF8B50446B9
:100500000D4617461E468DF802708DF801508DF885
:1005100000608DF803406946002001F005FCF8BD3D
:100520003EB541F6FF740121080700F040FE0120AE
:1005300002F0B9F8002001F0B5FF45F25001884201
:100540002BD0012000F087FC04E0601C84B20A205C
:1005500000F06AF9412000F037FC0028F5D00CB912
:1005600001203EBD4FF4807000F076FD012000F0C8
:100570008EFD7F200190FF200290002000906846B1
:1005800001F099FA00231A4619461846FFF7A4FF0E
:1005900045F25001002001F078FF00231A46194669
:1005A0001846FFF799FF0020DBE7F0B587B0044657
:1005B0000D4616461F4600214FF4807001F0F4FCF2
:1005C0008DF800508DF801608DF8027000208DF8D4
:1005D00003008DF810404FF08040039000200290FF
:1005E0000098019001AA4FF48071002001F025FCD1
:1005F0004FF4805002F038F84FF4003001F08BF9DE
:100600000121080301F0C4FF0121080201F0CCFC24
:100610004FF40030059000208DF8180008208DF868
:10062000190001208DF81A0005A801F003F929200E
:100630004749087003204870002088700120C87066
:10064000084600F0DCF907B0F0BD7CB505460C4665
:10065000002001F02EFD284601F006FD204601F0A5
:1006600018FD4FF4804001F0FFFF4FF4800001F0CF
:1006700052F90121880301F08BFF012001F019FDDF
:100680004FF48000009000208DF8040008208DF8C1
:10069000050001208DF80600684601F0CBF8032024
:1006A0002B49087002204870002088700120C87013
:1006B000084600F0A4F97CBD10B54FF4807001F03D
:1006C00096FF012805D1000201F0A2FF21A002F04F
:1006D00097F84FF4003001F01EF910BD10B54FF43B
:1006E000806001F084FF01280CD11D48D0E9002072
:1006F0007D3240F100001A49C1E900204FF48060CA
:1007000001F086FF4FF4800001F005F910BD38B507
:100710006946002001F0D4FA9DF800004FF46161B1
:1007200010FB01F09DF80110C1EB011100EB8100FD
:100730009DF802104418204638BD10B5FFF7F0FEB2
:10074000FF210020FFF781FF10BD054903C9704755
:1007500018000020414C41524D2041210D0A00005B
:100760002000002010B504466FF0040000F094F95A
:10077000E11704EB5171C1F3C701394A11701046FA
:10078000007800EB4001C1EBC0104FF6FF7101EAA9
:10079000C0003449088010BD0146314A12784A43EE
:1007A0004FF0E0235A6100229A611A46126942F022
:1007B00001021A6100BF4FF0E022106900F001024F
:1007C0001AB100F48032002AF5D04FF0E02212690D
:1007D00022F001024FF0E0231A6100229A61704773
:1007E0000146204A12884A434FF0E0235A61002212
:1007F0009A611A46126942F001021A6100BF4FF075
:10080000E022106900F001021AB100F48032002ADF
:10081000F5D04FF0E022126922F001024FF0E02300
:100820001A6100229A61704770B504464FF4077050
:1008300094FBF0F0C6B24FF4077094FBF0F100FBAC
:10084000114085B205E04FF40770FFF7C9FF701E35
:10085000C6B2002EF7D115B12846FFF7C1FF70BD13
:10086000280000202A000020014600BF704700BF7A
:100870004C4A128802F04002002AF9D0C2B2494B19
:100880009A80704710B588B004460121084600F0F0
:1008900045FC0121102000F09BFC07220921424861
:1008A00000F029FA07220A213F4800F024FA4FF409
:1008B000C060069002208DF81C008DF81D000020FD
:1008C0008DF81E0001208DF81F0006A9364800F0A3
:1008D00087F902940020ADF80C00ADF80E00ADF8D9
:1008E0001000ADF814000C20ADF8120002A92D483C
:1008F00000F0CFFD01212B4800F053FE012240F211
:100900002551284800F003FF25208DF8040003201E
:100910008DF805008DF8060001208DF8070001A86C
:1009200000F06DF808B010BD10B540F225511D481B
:1009300000F028FF10B31B4800F062FEC4B21B4851
:10094000008800F40040C8B91848008800F48040CE
:1009500060B10A2C03D000201449088020E013481D
:10096000008840F400401149088019E00D2C06D1A0
:100970000E48008840F480400C49088010E00B4885
:100980000088C0F30D000A490C5408480088401C38
:100990000649088008460088C72801DD0020088035
:1009A00010BD000000100140000002403000002097
:1009B000440000200948804709480047FEE7FEE759
:1009C000FEE7FEE7FEE7FEE7FEE7FEE7FEE7FEE7FF
:1009D00004480549054A064B70470000A503000876
:1009E00089010008700100207007002070030020BA
:1009F0007003002032490143324A1160704770B5DC
:100A0000002100230F22C4781CB32E4C246804F468
:100A1000E064C4F5E064C4F30721C1F10404E3B267
:100A20000A4144789C40E1B28478144021430C0789
:100A3000210E254C05786155047804F01F0501242A
:100A4000AC4005786D11AD0005F1E025C5F8004119
:100A500009E0047804F01F050124AC401B4D067822
:100A6000761145F8264070BD194A0A400243154BDD
:100A70001B1F1A60704739B1124A121D12680243D7
:100A8000104B1B1D1A6006E00E4A121D12688243AD
:100A90000C4B1B1D1A607047042808D14FF0E02151
:100AA000096941F004014FF0E022116107E04FF0C5
:100AB000E021096921F004014FF0E0221161704743
:100AC0000000FA050CED00E000E400E080E100E049
:100AD00080FFFF1F10B504469848844208D10121C9
:100AE000084600F086FB0021012000F082FB76E042
:100AF0009348844208D10121022000F07AFB0021B2
:100B0000022000F076FB6AE08E48844208D1012181
:100B1000042000F06EFB0021042000F06AFB5EE080
:100B20008948844208D10121082000F062FB00219D
:100B3000082000F05EFB52E08448844208D1012185
:100B4000102000F056FB0021102000F052FB46E080
:100B50007F48844208D10121202000F04AFB002177
:100B6000202000F046FB3AE07A48844208D1012177
:100B7000402000F03EFB0021402000F03AFB2EE038
:100B80007548844208D10121802000F032FB002109
:100B9000802000F02EFB22E07048844208D1012121
:100BA000801500F026FB0021A01500F022FB16E0C6
:100BB0006B48844208D10121401500F01AFB002146
:100BC000601500F016FB0AE06648844207D1012157
:100BD000001500F00EFB0021201500F00AFB10BDEF
:100BE000F0B50A4600210023002400BF3DE00125A6
:100BF00005FA01F3156805EA03049C4234D105683F
:100C00004F000326BE40B543056015794E00B54040
:100C10000668354305601579012D02D01579022D3E
:100C200016D185684F000326BE40B54385605579CF
:100C30004E00B540866835438560456801268E4084
:100C4000B5434560456896798E40B6B235434560F8
:100C5000C5684F000326BE40B543C560D5794E0038
:100C6000B540C6683543C560491C1029BFD3F0BDE7
:100C70004FF6FF7101600021017141718171C171F5
:100C8000704708B54FF480320092009A0A430092F0
:100C9000009AC261C161009AC261C2690092C269D0
:100CA000009208BD0246002013690B400BB10120E1
:100CB00000E0002070470146086980B27047024694
:100CC000002053690B400BB1012000E00020704769
:100CD0000146486980B2704701837047418370477D
:100CE0000AB1018300E04183704741617047426966
:100CF0004A4042617047F0B5002300244D07ED0ED5
:100D000002FA05F3CE1000F1200555F826504E07E3
:100D1000F70E0F26BE40B543CF1000F1200646F86F
:100D20002750CE1000F1200555F8265045EA03045F
:100D3000CE1000F1200545F82640F0BD000002402D
:100D40000004024000080240000C02400010024073
:100D50000014024000180240001C02400020024023
:100D60000024024000280240F948006840F00100D9
:100D7000F74908600020F64908310860F448006827
:100D8000F4490840F2490860F348091D0860F34837
:100D9000EF4984310860F0481038091D0860EC48BC
:100DA000006820F48020EA4908600020E8490C31FE
:100DB0000860E7498C31086070470021E44A921CC2
:100DC000117011460870704710B5014600220023CB
:100DD00000204A11012A02D1DD4C236808E0022AD2
:100DE00003D1DB4C7034236802E0D94C743423689F
:100DF00001F01F02012494401C400CB1012000E0CE
:100E0000002010BD38B5002000900024002500BF50
:100E10003120FFF7D9FF05460098401C009000984C
:100E2000B0F5A04F01D0002DF2D03120FFF7CCFF5C
:100E300008B1012400E00024204638BD014600200E
:100E4000C34A106820F0F80040EAC1001060704703
:100E5000C349086070470021BD4A7032117011709B
:100E6000012802D004280AD104E00121B84A7032D6
:100E7000117005E00521B64A7032117000E000BF24
:100E800000BF7047B7490860704770B5049C41EADD
:100E900082150126C6EB530645EA0645054345EA99
:100EA0000465AB4E361D356070BDAD4908667047B0
:100EB000820142EA0172A64B84331A607047A84946
:100EC0008866704710B5830143EA016343EA027301
:100ED0009F4C8834236010BDA14908677047A04922
:100EE000C864704702460020994B0833186820F008
:100EF000EC6042EA01031843954B083318607047D1
:100F000002460020924B0833186820F0784042EAED
:100F1000010318438E4B08331860704701460020C8
:100F20008B4A0832106820F00300084310607047B5
:100F300087480830006800F00C0070470146002028
:100F4000834A0832106820F0F000084310607047B0
:100F5000014600207E4A0832106820F4E050084321
:100F60001060704701460020794A0832106820F46A
:100F7000604040EAC10010607047F0B500210022D7
:100F80000024022500260223714F08373F6807F02E
:100F90000C0121B1042905D0082937D105E0724F91
:100FA000076036E0714F076033E0694F3F1D3F68CF
:100FB000C7F38056664F3F1D3F6807F03F036EB191
:100FC0006A4FB7FBF3F7DFF888C10CF1040CDCF8CB
:100FD00000C0CCF3881C07FB0CF40CE0624FB7FB9D
:100FE000F3F7DFF86CC10CF1040CDCF800C0CCF3B3
:100FF000881C07FB0CF4564F3F1D3F68C7F30147A1
:101000007F1C7D00B4FBF5F7076002E0564F0760D8
:1010100000BF00BF4E4F08373F6807F0F0010909D5
:10102000534F7A5C0768D7404760494F08373F689D
:1010300007F4E051890A4E4F7A5C4768D7408760D1
:10104000434F08373F6807F46041490B484F7A5CCB
:101050004768D740C760F0BD002100F44072B2F588
:10106000407F0AD13A4A0832116821F4F811414A06
:1010700002401143364A08321160354A7032126814
:10108000C0F30B031A43324B70331A607047354973
:101090004439086070473349403908607047364921
:1010A0000860704701460020294A8C32106820F001
:1010B0001F004A1E1043264A8C32106070470146BA
:1010C0000020234A8C32106820F4F8504A1E40EA6F
:1010D00002201F4A8C3210607047014600201C4AD3
:1010E0008C32106820F440100843106070470146AD
:1010F0000020174A8C32106820F44000084310602A
:10110000704701460020124A8C32106820F44030AB
:1011100008431060704719490860704739B10C4A9C
:101120003032126802430A4B30331A6006E0084A34
:10113000303212688243064B30331A607047F9B17F
:10114000034A343212680243014B34331A601CE004
:1011500000380240FFFFF6EA103000240030002083
:1011600000004742800E47420024F40000127A003B
:1011700032000020FFFCFF0F5C014742E0114742B4
:101180008F4A126882438E4B1A60704739B18C4A7D
:10119000121D126802438A4B1B1D1A6006E0884A22
:1011A000121D12688243864B1B1D1A60704739B1AD
:1011B000834A0C3212680243814B0C331A6006E0FA
:1011C0007F4A0C32126882437D4B0C331A607047A1
:1011D00039B17B4A103212680243794B10331A60DE
:1011E00006E0774A103212688243754B10331A605A
:1011F000704739B1724A243A12680243704B243B5B
:101200001A6006E06E4A243A126882436C4B243B13
:101210001A60704739B16A4A203A12680243684B33
:10122000203B1A6006E0664A203A12688243644B0B
:10123000203B1A60704739B1614A1C3A1268024378
:101240005F4B1C3B1A6006E05D4A1C3A1268824301
:101250005B4B1C3B1A60704739B1594A143A12680B
:101260000243574B143B1A6006E0554A143A126881
:101270008243534B143B1A60704739B1504A103ABD
:10128000126802434E4B103B1A6006E04C4A103A7B
:10129000126882434A4B103B1A60704739B1484A82
:1012A0001C3212680243464B1C331A6006E0444A63
:1012B0001C3212688243424B1C331A60704739B1AA
:1012C0003F4A2032126802433D4B20331A6006E049
:1012D0003B4A203212688243394B20331A607047F0
:1012E00039B1374A243212680243354B24331A602D
:1012F00006E0334A243212688243314B24331A60A9
:10130000704739B12E4A2C32126802432C4B2C33D1
:101310001A6006E02A4A2C3212688243284B2C338A
:101320001A60704739B1264A303212680243244BA2
:1013300030331A6006E0224A303212688243204B72
:1013400030331A607047012808D11D493C310968C3
:1013500041F008011A4A3C32116007E018493C315B
:10136000096821F00801164A3C321160704739B112
:10137000134A273A12780243114B273B1A7006E0B2
:101380000F4A273A127882430D4B273B1A70704759
:101390000B484030006840F08070094940310860D7
:1013A000704701460020064A283A12680A400AB1EE
:1013B000012000E00020704701492639087070477D
:1013C0003438024010B50446FA48844208D101215D
:1013D0001020FFF752FF00211020FFF74EFF57E0CB
:1013E000F548844209D101214804FFF735FF002167
:1013F0004FF40030FFF730FF4AE0F048844209D153
:1014000001218804FFF728FF00214FF48020FFF717
:1014100023FF3DE0EA48844209D10121C804FFF7D7
:101420001BFF00214FF40020FFF716FF30E0E548D6
:10143000844209D101210805FFF70EFF00214FF476
:101440008010FFF709FF23E0DF48844208D1012123
:101450002020FFF712FF00212020FFF70EFF17E0EA
:10146000DA48844209D101218807FFF7F5FE0021FF
:101470004FF08040FFF7F0FE0AE0D548844207D1E4
:1014800001214005FFF7E8FE00216005FFF7E4FEBB
:1014900010BD2DE9FF4705460E460024A14600BFBA
:1014A000A046B08900B100BF2C8A24F44054F088D3
:1014B00004432C82AC8941F20C608443B0883189AA
:1014C0000843718908430443AC81AC8A24F4407416
:1014D000B0890443AC826846FFF74FFDB5488542AA
:1014E00002D0B948854202D1DDF80C9001E0DDF868
:1014F0000890A88900F4004040B109EBC90000EB56
:10150000091031684900B0FBF1F707E009EBC900A9
:1015100000EB091031688900B0FBF1F76420B7FBDC
:10152000F0F004012009642101FB1078A88900F47F
:10153000004040B1322000EBC800B0FBF1F000F0F9
:101540000700044308E0322000EB08106421B0FBE0
:10155000F1F000F00F0004432C81BDE8FF874FF449
:101560001651016000218180C18001810C214181DF
:1015700000218181704710B502460020108A20F4B6
:1015800070600B884C8823438C882343CC8823438A
:101590001843108210BD0021018041808180C180EC
:1015A000704721B1828942F40052828104E082892D
:1015B0004DF6FF731A4082817047028B02F47F421E
:1015C0000283028B0A430283704721B1828942F46D
:1015D0000042828103E08289C2F30E028281704759
:1015E00021B1828A42F40062828204E0828A4FF250
:1015F000FF731A4082827047C1F3080282807047ED
:1016000001468888C0F308007047028A4FF6F073DD
:101610001A400282028A0A430282704721B18289FB
:1016200042F00202828104E082894FF6FD731A4083
:101630008281704782894FF2FF731A4082818289CA
:101640000A4382817047028A4FF6DF731A40028292
:10165000028A0A430282704721B1028A42F4804220
:10166000028204E0028A4BF6FF731A40028270473E
:10167000818941F001018181704721B1828A42F064
:101680000802828204E0828A4FF6F7731A4082824F
:101690007047028BD2B20283028B42EA012202839C
:1016A000704721B1828A42F02002828204E0828A5D
:1016B0004FF6DF731A408282704721B1828A42F06E
:1016C0001002828204E0828A4FF6EF731A4082820F
:1016D0007047828A4FF6FB731A408282828A0A43DD
:1016E0008282704721B1828A42F00202828204E043
:1016F000828A4FF6FD731A40828270471AB1838A3C
:101700000B43838202E0838A8B4383827047F0B568
:101710000346002400260025002040F66A17B9423F
:1017200000D100BF1846C1F3421401F01F06012783
:1017300007FA06F5012C01D10C3004E0022C01D18E
:10174000103000E014301AB107682F43076002E040
:101750000768AF430760F0BD02460020B1F5007F87
:1017600000D100BF13880B400BB1012000E0002026
:10177000704701F40072B2F5007F00D100BFCA4388
:101780000280704770B50246002400230025002027
:1017900040F66A16B14200D100BFC1F3421501F014
:1017A0001F03012606FA03F3012D13D19689334056
:1017B00017E00000001001400044004000480040D5
:1017C000004C0040005000400014014000780040F0
:1017D000007C0040022D02D1168A334001E0968A37
:1017E00033400C12012606FA04F41688344013B173
:1017F0000CB1012000E0002070BD10B500220023D4
:1018000040F66A14A14200D100BF0A12012494409C
:10181000A3B2DC43048010BD002041490860091DCB
:101820000860091D0860091D08603E483C491431E4
:101830000860704700213A498279002A3AD00A4666
:10184000126803689A430B461A600A1D12680368FF
:101850009A430B1D1A60027911440A6803681A43FF
:101860000A602F4A0832126803689A432C4B0833E7
:101870001A601A1D126803689A43294B0C331A60C8
:101880004279102A0ED11A1F126803681A43244B9A
:1018900008331A601A1D126803681A43204B0C3370
:1018A0001A600DE01E49427911440A6803681A4320
:1018B0000A6005E0027911440A6803689A430A60E5
:1018C00070470021016001710C214171002181717B
:1018D00070471349103109680143114A10321160F1
:1018E0007047014600200E4A143212680A400AB1BD
:1018F000012000E00020704709491431086070475A
:1019000001460020064A143212680A400AB101203A
:1019100000E0002070470249143108607047000061
:10192000003C0140FFFF7F0008B50022009200202C
:101930000021CA22F94B1A6053221A60F74A183A5A
:10194000126822F0A002F54B183B1A6000BFF34A60
:10195000183A126802F02001009A521C0092009A74
:10196000B2F5003F01D00029F1D0EC4A183A1268D4
:1019700002F020020AB1012000E00020FF22E74B24
:101980001A6008BD08B50022009200200021E34A39
:10199000183A126802F04002E2B9421EDF4B183BCF
:1019A0001A6000BFDD4A183A126802F04001009A3E
:1019B000521C0092009AB2F5803F01D00029F1D06C
:1019C000D64A183A126802F040020AB1012002E039
:1019D000002000E0012008BD38B500200090002460
:1019E0000025CA20CD49086053200860FFF7CAFFD0
:1019F00000B952E00020C9492439086042F20110C0
:101A0000091D0860081D006800F00700091D086036
:101A100000BFC2481838006800F004040098401C59
:101A200000900098B0F5803F01D0002CF1D0BB4869
:101A30001838006800F0040008B900252DE0B74808
:101A40001C3800680020B5491C3908604FF6FF704B
:101A5000B24910390860B248091F08600020AF4938
:101A60000C390860091D0860091D0860AB49083180
:101A70000860AA4918310860A84920310860091D8A
:101A80000860A64918390860A4491C310860FFF7AE
:101A90004BFF08B9002500E00125FF209F490860A1
:101AA000284638BD9D481838006820F080009B49C2
:101AB00018390860704730B504460025CA20974998
:101AC000086053200860FFF75DFF00B91DE09348F0
:101AD0001C38006820F0400090491C390860084616
:101AE0000068216808438D491C3908608B49143906
:101AF000A068086008460068A18840EA014087495C
:101B000014390860FFF7CEFF0125FF2083490860E4
:101B1000284630BD002101607F214160FF218160A6
:101B2000704718B1FF217D4A116004E0CA217B4A49
:101B3000116053211160704730B504460025CA205A
:101B40007649086053200860FFF71CFF00B914E0D5
:101B500044B172481C38006840F010006F491C39CD
:101B6000086007E06D481C38006820F010006B49E1
:101B70001C390860FFF796FF0125FF2067490860C0
:101B8000284630BDCA21654A11605321116040B119
:101B900062491C39096841F02001604A1C3A116011
:101BA00007E05E491C39096801F0DF015B4A1C3A15
:101BB0001160FF21594A116070470146002204E07C
:101BC000501CC2B2A1F10A00C1B20A29F8DA10070A
:101BD00041EA10607047014600BF080900EB800031
:101BE000420001F00F001044C0B270472DE9F041EF
:101BF00005460C460026002755B948481C380068A1
:101C000000F0400000B102E00020E07000BF0EE0F4
:101C100042481C38006800F0400020B12078FFF7EF
:101C2000DAFF064602E00020E07000BF00BF55B1B9
:101C300020780004617840EA0120A1780843E17827
:101C400040EA014611E02078FFF7B7FF4FEA00486D
:101C50006078FFF7B2FF48EA0028A078FFF7ADFFF1
:101C600048EA0008E07848EA0046CA202B490860A4
:101C700053200860FFF786FE08B9002714E02948C2
:101C80003040264924390860FFF70CFF23481C38F0
:101C9000006800F0200030B9FFF746FE08B90027C1
:101CA00002E0012700E00127FF201C4908603846B8
:101CB000BDE8F0810021C1700170417081707047F2
:101CC00070B506460C4600251448243800681549AE
:101CD00000EA0105C5F305402070C5F306206070D9
:101CE00005F07F00A07005F48000000CE0705EB984
:101CF0002078FFF770FF20706078FFF76CFF60704E
:101D0000A078FFF768FFA07070BD00200349091D8F
:101D100008680249203909687047000024280040FB
:101D2000FF007F007F7F7F002DE9F04105460C46D4
:101D3000002600274DB9607800F01000102804D16B
:101D4000607820F010000A30607005B908E0607813
:101D5000FFF741FF0646A078FFF73DFF064600BFAC
:101D600055B1E0780004617840EA0120A178084389
:101D7000217840EA413611E0E078FFF71EFF4FEA94
:101D800000486078FFF719FF48EA0028A078FFF7BD
:101D900014FF48EA0008207848EA4036CA20FE4985
:101DA000086053200860FFF7EDFD08B9002714E034
:101DB000FA483040F84920390860FFF773FEF648CA
:101DC0001C38006800F0200030B9FFF7ADFD08B9FD
:101DD000002702E0012700E00127FF20EE4908600C
:101DE0003846BDE8F0810121017081704170002109
:101DF000C170704770B506460C460025E64820388D
:101E00000068E64900EA0105280CE070C5F30420EB
:101E1000607005F03F00A070C5F3423020705EB9DD
:101E2000E078FFF7D8FEE0706078FFF7D4FE6070CE
:101E3000A078FFF7D0FEA07070BD2DE9F0410546F7
:101E40000E46144600276DB9D3481C38006800F0D0
:101E5000400000B102E00020E07000BFA06800B9BF
:101E60001AE019E0CC481C38006800F0400020B1AE
:101E70002078FFF7B0FE074602E00020E07000BFC8
:101E8000A06820B9207BFFF7A6FE074604E0207B70
:101E9000FFF7A1FE074600BF95B1207800046178E6
:101EA00040EA0120A1780843E17840EA0140217B23
:101EB00040EA0160A1680843616840EA01071BE04D
:101EC0002078FFF77AFE4FEA00486078FFF775FE4A
:101ED00048EA0028A078FFF770FE48EA0008E0789A
:101EE00048EA0048207BFFF768FE48EA0060A168E6
:101EF0000843616840EA0107CA20A74908605320E7
:101F00000860B6F5807F03D1A3480838076002E077
:101F1000A148001F0760FF209F490860BDE8F081CD
:101F20000021C170017041708170816001210173D5
:101F30000021416070472DE9F04106460F461446E6
:101F40000025B7F5807F03D193480838056802E083
:101F50009148001F0568C5F305402070C5F30620B1
:101F6000607005F07F00A07005F48000000CE07048
:101F7000C5F30560207305F08040A06005F0803057
:101F800060607EB92078FFF726FE20706078FFF74A
:101F900022FE6070A078FFF71EFEA070207BFFF786
:101FA0001AFE2073BDE8F08138B502460024009483
:101FB00000230020CA24784D2C6053242C6041B1AA
:101FC000754C1C3C24681443734D1C3D2C6001204F
:101FD0001EE0714C1C3C246894436F4D1C3D2C60EA
:101FE00000BF6D4C183C246804EA1223009C641C5A
:101FF0000094009CB4F5803F01D0002BF1D0664CDA
:10200000183C246804EA12240CB9002000E00120E6
:10201000FF24614D2C6038BD30B50023CA245E4DCD
:102020002C6053242C6041EA0203B0F5807F03D179
:10203000594C2034236002E0574C24342360FF24A1
:10204000554D2C6030BD01460020B1F5807F05D193
:10205000514A20321268C2F30E0004E04E4A243284
:102060001268C2F30E007047CA214B4A1160532117
:10207000116049491C39096821F00701464A1C3A98
:1020800011601146096801431160FF21424A116045
:102090007047CA21404A1160532111603E491039EE
:1020A0000860FF21116070473B481038006880B21B
:1020B000704718B501460023009300220020CA2370
:1020C000354C23605323236049B1334B1C3B1B68C1
:1020D00043F48063304C1C3C236001201FE02E4BF6
:1020E0001C3B1B6823F480632B4C1C3C236000BF0B
:1020F000294B183B1B6803F00402009B5B1C0093F8
:10210000009BB3F5803F01D0002AF1D0224B183B51
:102110001B6803F004030BB9002000E00120FF233B
:102120001D4C236018BDCA221B4B1A6053221A6033
:10213000194A1C3A126822F48022174B1C3B1A6081
:102140001A46126840EA01031A43134B1C3B1A60FB
:10215000FF22114B1A6070470F481C38006800F4CA
:1021600080207047CA220C4B1A6053221A600A4A18
:102170001C3A126822F4E002074B1C3B1A601A4614
:10218000126840EA01031A43034B1C3B1A60FF220A
:10219000014B1A6070470000242800403FFFFF00F9
:1021A00070B504460D460026CA20F6490860532043
:1021B0000860FFF7E7FB00B907E044EA0500F149D2
:1021C0000C390860FFF76EFC0126FF20ED4908601E
:1021D000304670BD30B504460025CA20E949086084
:1021E00053200860FFF7CEFB00B914E044B1E54886
:1021F0001C38006840F08000E2491C39086007E0A4
:10220000E0481C38006820F08000DE491C39086076
:10221000FFF748FC0125FF20DA490860284630BD59
:10222000CA21D84A11605321116040B1D5491C39E7
:10223000096841F40001D34A1C3A116007E0D14912
:102240001C39096821F40001CE4A1C3A1160FF21B3
:10225000CC4A11607047CA21CA4A116053211160EB
:10226000C8491C39096821F40021C64A1C3A11608A
:102270001146096801431160FF21C24A116070478D
:1022800070B5034600200024CA25BE4E3560532594
:102290003560BC4D183D2D6805F4803555B100E022
:1022A000641CB84D183D2D6805F4803515B1B4F5A2
:1022B000003FF5D1B34D183D2D6805F480353DB98B
:1022C00043EA01051543AF4E18363560012000E0A2
:1022D0000020FF25AB4E356070BD10B50A460021C9
:1022E000A84B1C3B1B6840F6080423EA04011AB102
:1022F00040F40063194300E00143CA23A14C23606A
:10230000532323609F4B1C3B1960FF23236010BDA8
:102310002DE9F04180460C461546002600279948D5
:102320000C300068984900EA0106964810300068B1
:10233000964900EA0107C6F305402070C6F306205F
:10234000607006F07F00A07006F48000000CE07062
:102350000020E870C7F30420687007F03F00A87001
:10236000C7F342302870B8F1000F17D12078FFF77B
:1023700032FC20706078FFF72EFC6070A078FFF7C9
:102380002AFCA0706878FFF726FC6870A878FFF731
:1023900022FCA8702878FFF71EFC2870BDE8F081A9
:1023A000784814300068704741B9764A1C32126888
:1023B00022EA4002734B1C331A6007E0714A1C3258
:1023C000126842EA40026F4B1C331A60704739B101
:1023D0006C4A1C32126802436A4B1C331A6006E0D6
:1023E000684A1C3212688243664B1C331A6070477D
:1023F00064491C31096821F4C051624A1C321160E1
:10240000114609680143116070475E491C31096833
:1024100021F4E0615B4A1C321160114609680143F6
:102420001160704757491C31096821F4C041554A71
:102430001C3211601146096801431160704740B1B8
:1024400050491C31096841F080014E4A1C3211602C
:1024500007E04C491C31096821F08001494A1C32CF
:102460001160704740B147491C31096821F40041AF
:10247000444A1C32116007E042491C31096841F4AA
:102480000041404A1C321160704708B5002200929A
:102490003C4A2C320092009A02EB80020092009A91
:1024A000116008BD08B501460020009035482C3069
:1024B0000090009800EB810000900098006808BD33
:1024C00030491C31096821F480312E4A1C321160D8
:1024D000114609680143116070472A491C31096897
:1024E00021F40031274A1C3211601146096801436A
:1024F0001160704723491C31096821F48021214A69
:102500001C32116011460968014311607047F0B533
:1025100004460D4600270026CA201A4908605320A9
:10252000086018481838006800F0080050B100E052
:10253000761C14481838006800F0080010B1B6F591
:10254000805FF5D10F481838006800F0080098B98E
:102550000C481C38006800F0100058B945EA040027
:10256000084908310860FFF7DFF908B9002704E0DF
:10257000012702E0002700E00027FF200149086052
:102580003846F0BD242800407F7F7F003FFFFF00DA
:10259000CA223D4B1A6053221A6091B13A4A1C3A42
:1025A000126820F004031A43374B1C3B1A60364A6A
:1025B0001C32126800F004031A43334B1C331A60B8
:1025C00011E0314A1C3A126820F004039A432E4B62
:1025D0001C3B1A602C4A1C32126800F004039A4318
:1025E000294B1C331A60FF22274B1A60704710B525
:1025F000014600200022244B183B1B68234C03EAB1
:10260000040202EA01030BB1012000E0002010BD2A
:1026100081B241F080011C4A183A126802F080022F
:1026200062EA0101184A183A1160704730B5014654
:10263000002000220023144C1C34246804F00402FF
:10264000114C1C3C24680C4002EAD13544EA0503D5
:102650000D4C183C246804EA11121BB194B20CB161
:10266000012000E0002030BD002101098AB242F0C3
:102670008002054B183B1B6803F0800363EA0202EB
:10268000014B183B1A607047242800407F3F01002F
:1026900010B501210807FEF7DFFD00214FF0805043
:1026A000FEF7DAFD10BD524908627047014600206E
:1026B000504A106820F0E0000843106070474C4911
:1026C000086170474A49A031086070474849A43101
:1026D0000860704701460020464A106820F44040D8
:1026E0000843106070474249086470474049486495
:1026F000704730B13F49096841F440213D4A1160BB
:1027000005E03C49096821F440213A4A11607047CC
:1027100018B10121364AD16202E00021344AD16267
:10272000704718B10121324A916202E00021304A1B
:10273000916270472E494862704710B502460020EA
:102740002C4B186840F6034398431043294B1860FC
:10275000294B1B6843F00403274C2360012901D156
:1027600030BF00E020BF244B1B6823F00403224C41
:10277000236010BD10B5024600201E4B186840F6BD
:102780000343984310431B4B18601B4B1B6843F0DB
:102790000403194C2360012901D130BF00E020BFA0
:1027A000154B1B6823F00403134C236010BD114824
:1027B000006840F002000F4908600F48006840F0D0
:1027C00004000D49086000BF00BF30BF70470146DC
:1027D0000020084A52680A400AB1012000E00020A7
:1027E00070470449096841EA8001024A1160704754
:1027F00000000E420070004010ED00E07047000045
:102800000FB4044910B503AA029800F07DF910BC7A
:102810005DF814FB2C0000202DE9F0410646002451
:1028200010687529314616A510D0AFF30080002836
:1028300002DA404213A507E031688A0701D512A5E4
:1028400002E0490704D511A5012401E0AFF300809F
:1028500000210A2206F1240709E0B0FBF2FCB0FBDC
:10286000F2F302FB1C00303078541846491C002853
:10287000F3D123462A463046BDE8F04100F0EBB8DC
:10288000000000002D0000002B00000020000000D0
:102890002DE9F0418046D21D22F007020025D2E941
:1028A0000002F52915A614D0011E72F1000106DA06
:1028B0000023D0EB030063EB020211A608E0D8F876
:1028C00000108B0701D50FA602E0490701D50EA61F
:1028D00001251146002408F1240704E000F076F8F1
:1028E00030323A55641C50EA0102F7D12B46324689
:1028F00021464046BDE8F04100F0ADB800000000C0
:102900002D0000002B000000200000002DE9F04108
:102910000F460546002028622846E968884770B3BC
:10292000252805D0D5E901219047286A401CF2E707
:10293000E9682846002688476C2804460AD0682C97
:1029400008D04C2C35D06A2C31D0742C31D07A2C54
:102950002FD016E0E968064628468847B04204466C
:1029600008D16C2E23D04FF480662846E96888474A
:10297000044606E06C2E03D04FF4807601E01EE0A2
:102980004026E4B1A4F14100192802D8203446F4CD
:1029900000663A46214628462E60FDF72FFC60B1BE
:1029A000012808D0FF1D27F007070837B4E7802665
:1029B000DBE70026D9E73F1DAEE72046B2E7286AED
:1029C000BDE8F081704770477047704730B5B0F18F
:1029D0000A024FEA900E71F100034EEA817EB0EBDD
:1029E0000E0061EB91014FEA101E4EEA017E10EBE2
:1029F0000E0041EB11114FEA102E4EEA016E10EB62
:102A00000E0041EB11214FEA104E4EEA014E10EB41
:102A10000E0041EB1141401841F100014FEAD00096
:102A200040EA41704FEAD10110EB80054FEA810482
:102A300044EA907444EB01046D1944EB0404521B06
:102A4000A3414FF0000348BF0A3200D530BD401CFF
:102A500041F1000130BD2DE9F0470D4699469246FF
:102A6000044600F124080168880604D5E06921F0D5
:102A70001001216000E00120A84201DD471B00E0B9
:102A80000027A1697A1902EB0900081AA0612078D1
:102A9000C00602D42046AFF30080002608E0D4E947
:102AA00001211AF806009047206A401C761C20621B
:102AB0004E45F4DB2078C0060AD52046AFF30080EF
:102AC00006E0D4E9012130209047206A401C2062B2
:102AD000381EA7F10107F4DC07E0D4E9012118F85A
:102AE00005009047206A401C2062281EA5F10105C0
:102AF000F3DC2046AFF300802078000602D50220E8
:102B0000BDE8F0870120FBE7074B70B50D467B441D
:102B100000F011F80446284600F020F810B14FF0FC
:102B2000FF3070BD204670BD5DDDFFFF01694A1CAE
:102B300002610878704700B58FB0CDE901310021FE
:102B4000059105497944CDE9031011466846FFF720
:102B5000DDFE0FB000BD0000E5FFFFFF007B00F0D1
:102B600080007047754600F02BF8AE4605006946B8
:102B7000534620F00700854618B020B5FDF728FF22
:102B8000BDE820404FF000064FF000074FF000086E
:102B90004FF0000B21F00701AC46ACE8C009ACE8EF
:102BA000C009ACE8C009ACE8C0098D46704710B553
:102BB0000446AFF300802046BDE81040FDF73ABB65
:102BC000004870470C0100204FF04070E1EE100A01
:102BD00070470000F42B00080000002044000000B3
:102BE000C4010008382C0008440000202C07000015
:102BF000E0010008007A030A000000000000000065
:102C0000010203040607080900000000000000009C
:102C100000000000000000000000000000000000B4
:102C20000000000000000000000001020304010297
:082C3000030406070809000077
:040000050800018965
:00000001FF
